:104058005B426F6F745D2830290D0A005B4C6F63FB
:104068006B5D2831290D0A005B45726173655D2817
:1040780032290D0A005B53746172745D283329007C
:104088000D0A5B476574200020427974655D283409
:10409800290D0A000D0A5B54696D65204F75745D22
:1040A8002835290D0A000D0A5B4F766572666C6F1C
:0E40B800775D2836290D0A00FFFFFFFFFFFF8E
:08415300021400000216000036
:1040EA00759850758E40E4F589758AC0758C63752C
:1040FA008BCC758DFFC28DC28FC28CD28EC2AB2281
:034148002430FF21
:08414B008F993099FDC2992201
:10410A008F828E83E49360130FEF70010E14F58291
:0C411A00E493F5993099FDC29980E522EC
:043FE9008E098F0AA4
:103FED00E4FBEBC39405748094805023AE09AF0AB3
:103FFD007C007D0A123F17740B2BF8A605AE09AF96
:10400D000A7C007D0A123F178E098F0A0B80D3E5BB
:10401D000F6003124148E50F450E6005E50E124194
:10402D0048E50F450E450D6008E50D2430FF1241A2
:10403D004BE50F450E450D450C6008E50C2430FF92
:0B404D0012414BE50B2430FF02414BF9
:0E413A00E4F5C7F5C5F5C675C3FF75C4FF22D1
:1041260075C78175C5038FC48EC375C65A75C6A576
:044136000002413A08
:0E40C600900001E493FD1240D4A3E493FD0F9B
:1040D40075C78175C5028FC48EC38DC275C65A75E6
:0640E400C6A50002413AEE
:0A3DA1008E098F0A8B0B8A0C890D26
:103DAB00E4F510F511E42511FFE51034428F82F58F
:103DBB0083E493FF74002511F58274003510F583AD
:103DCB00EFF00511E51170020510B400D8E510B441
:103DDB0002D37F007E42124126E4250AF513E50942
:103DEB0034BEF512E4F510F511C3E511950FE5108E
:103DFB00950E5030AB0BAA0CA90D85118285108343
:103E0B00123EEAFFE5112513FDE5103512FC740097
:103E1B002DF58274003CF583EFF00511E51170C9A7
:103E2B00051080C5E4F510F511E42511FFE51034FC
:103E3B0042FE74002511F58274003510F583E0FD08
:103E4B001240D40511E51170020510C3E510940260
:023E5B0040D74E
:013E5D002242
:103F7200D3E5179400E5169401503A900001E0FD54
:103F82007F067E421240D4A3E0FD0F1240D47A0095
:103F92007B03C3EB9517EA9516504BAF03AE027441
:103FA200002BF58274003AF583E0FD1240D40BBB7E
:103FB20000010A80DDE4FAFBC3EB9515EA95145083
:103FC20025C3E5179515CFE5169514CF2BCF3AFEED
:103FD20074002BF58274003AF583E0FD1240D40B95
:063FE200BB00010A80D2C1
:013FE80022B6
:103C000075F518904200E49330E71A7D7F7F007EBF
:103C1000421240D47F061240C67F011240C67DBFCB
:103C20007F001240D4904201E493FE740193FFE4BC
:103C3000A907AA06F5188A19891A9042039354C055
:103C4000701E90420693FE740193FFE4A907AA0632
:103C5000F5188A19891A208007AA19A91A123F6C27
:103C60001240EA7E407F5812410A3098FDC298E522
:103C700099642160097E407F6412410A80FE7E4083
:103C80007F7012410AE4FFFE1241267D021240D4E9
:103C9000904201E493FD0F1240CC7BFF7A4079C043
:103CA000750E00750F050F7E42123DA17D7F7F03CB
:103CB0007E421240D47D007C02C3EC943C5010AF95
:103CC00005AE04124126E42DFD74023CFC80EAE4BA
:103CD000F514F515F516F5177E407F7D12410AD2D1
:103CE0008C7508FA20986C308DFAC28D1508E5089D
:103CF00070F2C28CE517451660347E407F88124111
:103D00000AAF17AE16123FE97E407F9012410A12A9
:103D10003F72E516FD7F047E421240D4AD170F12AC
:103D200040D47DBF7F031240D4904206800A7E407B
:103D30007F9C12410A904201E493FE740193FFE4D8
:103D4000A907AA06F5188A19891AAA19A91A123FE9
:103D50006C8091C28DC2980515E515AE14700205F0
:103D600014142400F58274003EF583E599F00517DC
:103D7000E51770020516E4B5150DE514B401081237
:103D80003F72E4F514F515D3E5179400E516943C5D
:103D900040097E407FAE12410A80FE750832023C27
:013DA000E43E
:03000000023E5E5F
:0C3E5E00787FE4F6D8FD75811A023EA5BD
:103EEA00BB010CE58229F582E5833AF583E022508D
:103EFA0006E92582F8E622BBFE06E92582F8E222D7
:0D3F0A00E58229F582E5833AF583E49322F0
:103F1700BC000BBE0029EF8DF084FFADF022E4CC8E
:103F2700F875F008EF2FFFEE33FEEC33FCEE9DEC57
:103F3700984005FCEE9DFE0FD5F0E9E4CEFD22ED9D
:103F4700F8F5F0EE8420D21CFEADF075F008EF2FE7
:103F5700FFED33FD4007985006D5F0F222C398FDD8
:053F67000FD5F0EA2275
:063F6C008A838982E473E0
:103E6A00023C00E493A3F8E493A34003F68001F232
:103E7A0008DFF48029E493A3F85407240CC8C33359
:103E8A00C4540F4420C8834004F456800146F6DF28
:103E9A00E4800B0102040810204080904153E47E24
:103EAA00019360BCA3FF543F30E509541FFEE4931D
:103EBA00A360010ECF54C025E060A840B8E493A3E4
:103ECA00FAE493A3F8E493A3C8C582C8CAC583CA0F
:103EDA00F0A3C8C582C8CAC583CADFE9DEE780BEC7
:01415B000063
:00000001FF
